{
  "contractName": "Channel",
  "abi": [
    {
      "inputs": [
        {
          "internalType": "string",
          "name": "_channelName",
          "type": "string"
        }
      ],
      "stateMutability": "nonpayable",
      "type": "constructor"
    },
    {
      "anonymous": false,
      "inputs": [
        {
          "indexed": true,
          "internalType": "address",
          "name": "sender",
          "type": "address"
        },
        {
          "indexed": false,
          "internalType": "string",
          "name": "content",
          "type": "string"
        },
        {
          "indexed": false,
          "internalType": "string",
          "name": "profilePicture",
          "type": "string"
        },
        {
          "indexed": false,
          "internalType": "string",
          "name": "name",
          "type": "string"
        },
        {
          "indexed": false,
          "internalType": "uint256",
          "name": "timestamp",
          "type": "uint256"
        }
      ],
      "name": "MessageSent",
      "type": "event"
    },
    {
      "inputs": [
        {
          "internalType": "address",
          "name": "",
          "type": "address"
        }
      ],
      "name": "addressMessageCounter",
      "outputs": [
        {
          "internalType": "uint256",
          "name": "",
          "type": "uint256"
        }
      ],
      "stateMutability": "view",
      "type": "function"
    },
    {
      "inputs": [],
      "name": "channelName",
      "outputs": [
        {
          "internalType": "string",
          "name": "",
          "type": "string"
        }
      ],
      "stateMutability": "view",
      "type": "function"
    },
    {
      "inputs": [
        {
          "internalType": "address",
          "name": "",
          "type": "address"
        }
      ],
      "name": "members",
      "outputs": [
        {
          "internalType": "bool",
          "name": "",
          "type": "bool"
        }
      ],
      "stateMutability": "view",
      "type": "function"
    },
    {
      "inputs": [],
      "name": "canJoinChannel",
      "outputs": [
        {
          "internalType": "bool",
          "name": "",
          "type": "bool"
        }
      ],
      "stateMutability": "view",
      "type": "function"
    },
    {
      "inputs": [
        {
          "internalType": "string",
          "name": "_content",
          "type": "string"
        },
        {
          "internalType": "string",
          "name": "_picture",
          "type": "string"
        },
        {
          "internalType": "string",
          "name": "_name",
          "type": "string"
        }
      ],
      "name": "sendMessage",
      "outputs": [],
      "stateMutability": "nonpayable",
      "type": "function"
    },
    {
      "inputs": [],
      "name": "getMessages",
      "outputs": [
        {
          "components": [
            {
              "internalType": "address",
              "name": "sender",
              "type": "address"
            },
            {
              "internalType": "string",
              "name": "content",
              "type": "string"
            },
            {
              "internalType": "string",
              "name": "profilePicture",
              "type": "string"
            },
            {
              "internalType": "string",
              "name": "name",
              "type": "string"
            },
            {
              "internalType": "uint256",
              "name": "timestamp",
              "type": "uint256"
            }
          ],
          "internalType": "struct Channel.Message[]",
          "name": "",
          "type": "tuple[]"
        }
      ],
      "stateMutability": "view",
      "type": "function"
    },
    {
      "inputs": [],
      "name": "getMyMessages",
      "outputs": [
        {
          "components": [
            {
              "internalType": "address",
              "name": "sender",
              "type": "address"
            },
            {
              "internalType": "string",
              "name": "content",
              "type": "string"
            },
            {
              "internalType": "string",
              "name": "profilePicture",
              "type": "string"
            },
            {
              "internalType": "string",
              "name": "name",
              "type": "string"
            },
            {
              "internalType": "uint256",
              "name": "timestamp",
              "type": "uint256"
            }
          ],
          "internalType": "struct Channel.Message[]",
          "name": "",
          "type": "tuple[]"
        }
      ],
      "stateMutability": "view",
      "type": "function"
    }
  ],
  "bytecode": "0x60806040523480156200001157600080fd5b5060405162001a4038038062001a4083398181016040528101906200003791906200021d565b336000806101000a81548173ffffffffffffffffffffffffffffffffffffffff021916908373ffffffffffffffffffffffffffffffffffffffff16021790555080600190805190602001906200008f929190620000ef565b506001600260003373ffffffffffffffffffffffffffffffffffffffff1673ffffffffffffffffffffffffffffffffffffffff16815260200190815260200160002060006101000a81548160ff02191690831515021790555050620003f2565b828054620000fd9062000303565b90600052602060002090601f0160209004810192826200012157600085556200016d565b82601f106200013c57805160ff19168380011785556200016d565b828001600101855582156200016d579182015b828111156200016c5782518255916020019190600101906200014f565b5b5090506200017c919062000180565b5090565b5b808211156200019b57600081600090555060010162000181565b5090565b6000620001b6620001b08462000297565b6200026e565b905082815260208101848484011115620001d557620001d4620003d2565b5b620001e2848285620002cd565b509392505050565b600082601f830112620002025762000201620003cd565b5b8151620002148482602086016200019f565b91505092915050565b600060208284031215620002365762000235620003dc565b5b600082015167ffffffffffffffff811115620002575762000256620003d7565b5b6200026584828501620001ea565b91505092915050565b60006200027a6200028d565b905062000288828262000339565b919050565b6000604051905090565b600067ffffffffffffffff821115620002b557620002b46200039e565b5b620002c082620003e1565b9050602081019050919050565b60005b83811015620002ed578082015181840152602081019050620002d0565b83811115620002fd576000848401525b50505050565b600060028204905060018216806200031c57607f821691505b602082108114156200033357620003326200036f565b5b50919050565b6200034482620003e1565b810181811067ffffffffffffffff821117156200036657620003656200039e565b5b80604052505050565b7f4e487b7100000000000000000000000000000000000000000000000000000000600052602260045260246000fd5b7f4e487b7100000000000000000000000000000000000000000000000000000000600052604160045260246000fd5b600080fd5b600080fd5b600080fd5b600080fd5b6000601f19601f8301169050919050565b61163e80620004026000396000f3fe608060405234801561001057600080fd5b506004361061007d5760003560e01c80635e7339ce1161005b5780635e7339ce146100ec5780635ff6cbf31461010a57806385eacc5214610128578063fd32d89f146101465761007d565b806308ae4b0c146100825780630eabeffe146100b25780632443877c146100ce575b600080fd5b61009c60048036038101906100979190610e51565b610176565b6040516100a9919061116b565b60405180910390f35b6100cc60048036038101906100c79190610e7e565b610196565b005b6100d661042c565b6040516100e39190611186565b60405180910390f35b6100f46104ba565b6040516101019190611149565b60405180910390f35b610112610977565b60405161011f9190611149565b60405180910390f35b610130610c78565b60405161013d919061116b565b60405180910390f35b610160600480360381019061015b9190610e51565b610ccc565b60405161016d9190611262565b60405180910390f35b60026020528060005260406000206000915054906101000a900460ff1681565b600260003373ffffffffffffffffffffffffffffffffffffffff1673ffffffffffffffffffffffffffffffffffffffff16815260200190815260200160002060009054906101000a900460ff16610222576040517f08c379a000000000000000000000000000000000000000000000000000000000815260040161021990611202565b60405180910390fd5b6000835111610266576040517f08c379a000000000000000000000000000000000000000000000000000000000815260040161025d90611242565b60405180910390fd5b60006040518060a001604052803373ffffffffffffffffffffffffffffffffffffffff168152602001858152602001848152602001838152602001428152509050600481908060018154018082558091505060019003906000526020600020906005020160009091909190915060008201518160000160006101000a81548173ffffffffffffffffffffffffffffffffffffffff021916908373ffffffffffffffffffffffffffffffffffffffff1602179055506020820151816001019080519060200190610336929190610ce4565b506040820151816002019080519060200190610353929190610ce4565b506060820151816003019080519060200190610370929190610ce4565b50608082015181600401555050600360003373ffffffffffffffffffffffffffffffffffffffff1673ffffffffffffffffffffffffffffffffffffffff16815260200190815260200160002060008154809291906103cd90611426565b91905055503373ffffffffffffffffffffffffffffffffffffffff167f982a58abb58f8dc247af849fb084bb35837a4f7d01ff85ecbd971e57a68f80a48585854260405161041e94939291906111a8565b60405180910390a250505050565b60018054610439906113c3565b80601f0160208091040260200160405190810160405280929190818152602001828054610465906113c3565b80156104b25780601f10610487576101008083540402835291602001916104b2565b820191906000526020600020905b81548152906001019060200180831161049557829003601f168201915b505050505081565b6060600260003373ffffffffffffffffffffffffffffffffffffffff1673ffffffffffffffffffffffffffffffffffffffff16815260200190815260200160002060009054906101000a900460ff16610548576040517f08c379a000000000000000000000000000000000000000000000000000000000815260040161053f90611202565b60405180910390fd5b6000600360003373ffffffffffffffffffffffffffffffffffffffff1673ffffffffffffffffffffffffffffffffffffffff16815260200190815260200160002054116105ca576040517f08c379a00000000000000000000000000000000000000000000000000000000081526004016105c190611222565b60405180910390fd5b6000600360003373ffffffffffffffffffffffffffffffffffffffff1673ffffffffffffffffffffffffffffffffffffffff1681526020019081526020016000205467ffffffffffffffff811115610625576106246114fc565b5b60405190808252806020026020018201604052801561065e57816020015b61064b610d6a565b8152602001906001900390816106435790505b5090506000805b60048054905081101561096e573373ffffffffffffffffffffffffffffffffffffffff166004828154811061069d5761069c6114cd565b5b906000526020600020906005020160000160009054906101000a900473ffffffffffffffffffffffffffffffffffffffff1673ffffffffffffffffffffffffffffffffffffffff16141561095b57600481815481106106ff576106fe6114cd565b5b90600052602060002090600502016040518060a00160405290816000820160009054906101000a900473ffffffffffffffffffffffffffffffffffffffff1673ffffffffffffffffffffffffffffffffffffffff1673ffffffffffffffffffffffffffffffffffffffff16815260200160018201805461077e906113c3565b80601f01602080910402602001604051908101604052809291908181526020018280546107aa906113c3565b80156107f75780601f106107cc576101008083540402835291602001916107f7565b820191906000526020600020905b8154815290600101906020018083116107da57829003601f168201915b50505050508152602001600282018054610810906113c3565b80601f016020809104026020016040519081016040528092919081815260200182805461083c906113c3565b80156108895780601f1061085e57610100808354040283529160200191610889565b820191906000526020600020905b81548152906001019060200180831161086c57829003601f168201915b505050505081526020016003820180546108a2906113c3565b80601f01602080910402602001604051908101604052809291908181526020018280546108ce906113c3565b801561091b5780601f106108f05761010080835404028352916020019161091b565b820191906000526020600020905b8154815290600101906020018083116108fe57829003601f168201915b50505050508152602001600482015481525050838381518110610941576109406114cd565b5b6020026020010181905250818061095790611426565b9250505b808061096690611426565b915050610665565b50819250505090565b6060600260003373ffffffffffffffffffffffffffffffffffffffff1673ffffffffffffffffffffffffffffffffffffffff16815260200190815260200160002060009054906101000a900460ff16610a05576040517f08c379a00000000000000000000000000000000000000000000000000000000081526004016109fc90611202565b60405180910390fd5b6004805480602002602001604051908101604052809291908181526020016000905b82821015610c6f57838290600052602060002090600502016040518060a00160405290816000820160009054906101000a900473ffffffffffffffffffffffffffffffffffffffff1673ffffffffffffffffffffffffffffffffffffffff1673ffffffffffffffffffffffffffffffffffffffff168152602001600182018054610ab0906113c3565b80601f0160208091040260200160405190810160405280929190818152602001828054610adc906113c3565b8015610b295780601f10610afe57610100808354040283529160200191610b29565b820191906000526020600020905b815481529060010190602001808311610b0c57829003601f168201915b50505050508152602001600282018054610b42906113c3565b80601f0160208091040260200160405190810160405280929190818152602001828054610b6e906113c3565b8015610bbb5780601f10610b9057610100808354040283529160200191610bbb565b820191906000526020600020905b815481529060010190602001808311610b9e57829003601f168201915b50505050508152602001600382018054610bd4906113c3565b80601f0160208091040260200160405190810160405280929190818152602001828054610c00906113c3565b8015610c4d5780601f10610c2257610100808354040283529160200191610c4d565b820191906000526020600020905b815481529060010190602001808311610c3057829003601f168201915b5050505050815260200160048201548152505081526020019060010190610a27565b50505050905090565b6000600260003373ffffffffffffffffffffffffffffffffffffffff1673ffffffffffffffffffffffffffffffffffffffff16815260200190815260200160002060009054906101000a900460ff16905090565b60036020528060005260406000206000915090505481565b828054610cf0906113c3565b90600052602060002090601f016020900481019282610d125760008555610d59565b82601f10610d2b57805160ff1916838001178555610d59565b82800160010185558215610d59579182015b82811115610d58578251825591602001919060010190610d3d565b5b509050610d669190610daf565b5090565b6040518060a00160405280600073ffffffffffffffffffffffffffffffffffffffff168152602001606081526020016060815260200160608152602001600081525090565b5b80821115610dc8576000816000905550600101610db0565b5090565b6000610ddf610dda846112a2565b61127d565b905082815260208101848484011115610dfb57610dfa611530565b5b610e06848285611381565b509392505050565b600081359050610e1d816115f1565b92915050565b600082601f830112610e3857610e3761152b565b5b8135610e48848260208601610dcc565b91505092915050565b600060208284031215610e6757610e6661153a565b5b6000610e7584828501610e0e565b91505092915050565b600080600060608486031215610e9757610e9661153a565b5b600084013567ffffffffffffffff811115610eb557610eb4611535565b5b610ec186828701610e23565b935050602084013567ffffffffffffffff811115610ee257610ee1611535565b5b610eee86828701610e23565b925050604084013567ffffffffffffffff811115610f0f57610f0e611535565b5b610f1b86828701610e23565b9150509250925092565b6000610f3183836110a7565b905092915050565b610f4281611339565b82525050565b6000610f53826112e3565b610f5d8185611306565b935083602082028501610f6f856112d3565b8060005b85811015610fab5784840389528151610f8c8582610f25565b9450610f97836112f9565b925060208a01995050600181019050610f73565b50829750879550505050505092915050565b610fc68161134b565b82525050565b6000610fd7826112ee565b610fe18185611317565b9350610ff1818560208601611390565b610ffa8161153f565b840191505092915050565b6000611010826112ee565b61101a8185611328565b935061102a818560208601611390565b6110338161153f565b840191505092915050565b600061104b602483611328565b915061105682611550565b604082019050919050565b600061106e601d83611328565b91506110798261159f565b602082019050919050565b6000611091601f83611328565b915061109c826115c8565b602082019050919050565b600060a0830160008301516110bf6000860182610f39565b50602083015184820360208601526110d78282610fcc565b915050604083015184820360408601526110f18282610fcc565b9150506060830151848203606086015261110b8282610fcc565b9150506080830151611120608086018261112b565b508091505092915050565b61113481611377565b82525050565b61114381611377565b82525050565b600060208201905081810360008301526111638184610f48565b905092915050565b60006020820190506111806000830184610fbd565b92915050565b600060208201905081810360008301526111a08184611005565b905092915050565b600060808201905081810360008301526111c28187611005565b905081810360208301526111d68186611005565b905081810360408301526111ea8185611005565b90506111f9606083018461113a565b95945050505050565b6000602082019050818103600083015261121b8161103e565b9050919050565b6000602082019050818103600083015261123b81611061565b9050919050565b6000602082019050818103600083015261125b81611084565b9050919050565b6000602082019050611277600083018461113a565b92915050565b6000611287611298565b905061129382826113f5565b919050565b6000604051905090565b600067ffffffffffffffff8211156112bd576112bc6114fc565b5b6112c68261153f565b9050602081019050919050565b6000819050602082019050919050565b600081519050919050565b600081519050919050565b6000602082019050919050565b600082825260208201905092915050565b600082825260208201905092915050565b600082825260208201905092915050565b600061134482611357565b9050919050565b60008115159050919050565b600073ffffffffffffffffffffffffffffffffffffffff82169050919050565b6000819050919050565b82818337600083830152505050565b60005b838110156113ae578082015181840152602081019050611393565b838111156113bd576000848401525b50505050565b600060028204905060018216806113db57607f821691505b602082108114156113ef576113ee61149e565b5b50919050565b6113fe8261153f565b810181811067ffffffffffffffff8211171561141d5761141c6114fc565b5b80604052505050565b600061143182611377565b91507fffffffffffffffffffffffffffffffffffffffffffffffffffffffffffffffff8214156114645761146361146f565b5b600182019050919050565b7f4e487b7100000000000000000000000000000000000000000000000000000000600052601160045260246000fd5b7f4e487b7100000000000000000000000000000000000000000000000000000000600052602260045260246000fd5b7f4e487b7100000000000000000000000000000000000000000000000000000000600052603260045260246000fd5b7f4e487b7100000000000000000000000000000000000000000000000000000000600052604160045260246000fd5b600080fd5b600080fd5b600080fd5b600080fd5b6000601f19601f8301169050919050565b7f596f7520617265206e6f742061206d656d626572206f6620746869732063686160008201527f6e6e656c00000000000000000000000000000000000000000000000000000000602082015250565b7f596f752068617665206e657665722073656e642061206d657373616765000000600082015250565b7f4d65737361676520636f6e74656e742063616e6e6f7420626520656d70747900600082015250565b6115fa81611339565b811461160557600080fd5b5056fea26469706673582212203a8162fce4259232be1270fa539897aa3dbad999073580274cb323e34899e48c64736f6c63430008060033",
  "immutableReferences": {},
  "source": "// SPDX-License-Identifier: MIT\npragma solidity ^0.8.6;\n\ncontract Channel {\n    struct Message {\n        address sender;\n        string content;\n        string profilePicture;\n        string name;\n        uint timestamp;\n    }\n\n\n    event MessageSent(\n        address indexed sender,\n        string content,\n        string profilePicture,\n        string name,\n        uint timestamp\n    );\n\n    address private owner;\n    string public channelName;\n    mapping(address => bool) public members;\n    mapping(address => uint) public addressMessageCounter;\n    Message[] private channelMessages;\n\n    modifier onlyOwner() {\n        require(msg.sender == owner, \"Only the owner can call this function\");\n        _;\n    }\n\n    modifier onlyMembers() {\n        require(members[msg.sender], \"You are not a member of this channel\");\n        _;\n    }\n\n    constructor(string memory _channelName) {\n        owner = msg.sender;\n        channelName = _channelName;\n        members[msg.sender] = true;\n    }\n\n    function _joinChannel() internal {\n        members[msg.sender] = true;\n    }\n\n    function _leaveChannel() internal {\n        members[msg.sender] = false;\n    }\n\n    function canJoinChannel()  public view returns (bool)  {\n        return members[msg.sender];\n    }\n\n    function sendMessage(string memory _content, string memory _picture, string memory _name) public onlyMembers {\n        require(bytes(_content).length > 0, \"Message content cannot be empty\");\n\n        Message memory newMessage = Message({\n            sender: msg.sender,\n            content: _content,\n            profilePicture: _picture,\n            name: _name,\n            timestamp: block.timestamp\n        });\n\n        channelMessages.push(newMessage);\n        addressMessageCounter[msg.sender]++;\n        emit MessageSent(msg.sender, _content, _picture, _name, block.timestamp);\n    }\n\n    function getMessages() public onlyMembers view returns (Message[] memory) {\n        return channelMessages;\n    }\n\n\n    function getMyMessages() public onlyMembers view returns (Message[] memory)  {\n        require(addressMessageCounter[msg.sender] > 0, \"You have never send a message\");\n        Message[] memory myMessage = new Message[](addressMessageCounter[msg.sender]);\n        uint counter = 0;\n\n        for (uint i = 0; i < channelMessages.length; i++) {\n            if (channelMessages[i].sender == msg.sender) {\n                myMessage[counter] = channelMessages[i];\n                counter++;\n            }\n        }\n\n        return myMessage;\n    }\n}\n",
  "sourcePath": "/Users/matthias/Programming/Perso/sites/clone/paranom/client-web3/contracts/Channel.sol",
  "compiler": {
    "name": "solc",
    "version": "0.8.6+commit.11564f7e.Emscripten.clang"
  },
  "schemaVersion": "3.4.16",
  "updatedAt": "2024-01-21T15:12:58.444Z",
  "devdoc": {
    "kind": "dev",
    "methods": {},
    "version": 1
  },
  "userdoc": {
    "kind": "user",
    "methods": {},
    "version": 1
  }
}