{
  "contractName": "Marketplace",
  "abi": [
    {
      "inputs": [
        {
          "internalType": "string",
          "name": "_channelName",
          "type": "string"
        },
        {
          "internalType": "uint256",
          "name": "_feePercent",
          "type": "uint256"
        }
      ],
      "stateMutability": "nonpayable",
      "type": "constructor"
    },
    {
      "anonymous": false,
      "inputs": [
        {
          "indexed": false,
          "internalType": "uint256",
          "name": "itemId",
          "type": "uint256"
        },
        {
          "indexed": true,
          "internalType": "address",
          "name": "nft",
          "type": "address"
        },
        {
          "indexed": false,
          "internalType": "uint256",
          "name": "tokenId",
          "type": "uint256"
        },
        {
          "indexed": false,
          "internalType": "uint256",
          "name": "price",
          "type": "uint256"
        },
        {
          "indexed": true,
          "internalType": "address",
          "name": "seller",
          "type": "address"
        },
        {
          "indexed": true,
          "internalType": "address",
          "name": "buyer",
          "type": "address"
        }
      ],
      "name": "Bought",
      "type": "event"
    },
    {
      "anonymous": false,
      "inputs": [
        {
          "indexed": true,
          "internalType": "address",
          "name": "sender",
          "type": "address"
        },
        {
          "indexed": false,
          "internalType": "string",
          "name": "content",
          "type": "string"
        },
        {
          "indexed": false,
          "internalType": "string",
          "name": "profilePicture",
          "type": "string"
        },
        {
          "indexed": false,
          "internalType": "string",
          "name": "name",
          "type": "string"
        },
        {
          "indexed": false,
          "internalType": "uint256",
          "name": "timestamp",
          "type": "uint256"
        }
      ],
      "name": "MessageSent",
      "type": "event"
    },
    {
      "anonymous": false,
      "inputs": [
        {
          "indexed": false,
          "internalType": "uint256",
          "name": "itemId",
          "type": "uint256"
        },
        {
          "indexed": true,
          "internalType": "address",
          "name": "nft",
          "type": "address"
        },
        {
          "indexed": false,
          "internalType": "uint256",
          "name": "tokenId",
          "type": "uint256"
        },
        {
          "indexed": false,
          "internalType": "uint256",
          "name": "price",
          "type": "uint256"
        },
        {
          "indexed": true,
          "internalType": "address",
          "name": "seller",
          "type": "address"
        }
      ],
      "name": "Offered",
      "type": "event"
    },
    {
      "anonymous": false,
      "inputs": [
        {
          "indexed": false,
          "internalType": "uint256",
          "name": "tokenId",
          "type": "uint256"
        },
        {
          "indexed": false,
          "internalType": "address",
          "name": "user",
          "type": "address"
        }
      ],
      "name": "changeProfile",
      "type": "event"
    },
    {
      "inputs": [
        {
          "internalType": "address",
          "name": "",
          "type": "address"
        }
      ],
      "name": "addressMessageCounter",
      "outputs": [
        {
          "internalType": "uint256",
          "name": "",
          "type": "uint256"
        }
      ],
      "stateMutability": "view",
      "type": "function",
      "constant": true
    },
    {
      "inputs": [],
      "name": "canJoinChannel",
      "outputs": [
        {
          "internalType": "bool",
          "name": "",
          "type": "bool"
        }
      ],
      "stateMutability": "view",
      "type": "function",
      "constant": true
    },
    {
      "inputs": [],
      "name": "channelName",
      "outputs": [
        {
          "internalType": "string",
          "name": "",
          "type": "string"
        }
      ],
      "stateMutability": "view",
      "type": "function",
      "constant": true
    },
    {
      "inputs": [],
      "name": "feeAccount",
      "outputs": [
        {
          "internalType": "address payable",
          "name": "",
          "type": "address"
        }
      ],
      "stateMutability": "view",
      "type": "function",
      "constant": true
    },
    {
      "inputs": [],
      "name": "feePercent",
      "outputs": [
        {
          "internalType": "uint256",
          "name": "",
          "type": "uint256"
        }
      ],
      "stateMutability": "view",
      "type": "function",
      "constant": true
    },
    {
      "inputs": [],
      "name": "getMessages",
      "outputs": [
        {
          "components": [
            {
              "internalType": "address",
              "name": "sender",
              "type": "address"
            },
            {
              "internalType": "string",
              "name": "content",
              "type": "string"
            },
            {
              "internalType": "string",
              "name": "profilePicture",
              "type": "string"
            },
            {
              "internalType": "string",
              "name": "name",
              "type": "string"
            },
            {
              "internalType": "uint256",
              "name": "timestamp",
              "type": "uint256"
            }
          ],
          "internalType": "struct Channel.Message[]",
          "name": "",
          "type": "tuple[]"
        }
      ],
      "stateMutability": "view",
      "type": "function",
      "constant": true
    },
    {
      "inputs": [],
      "name": "getMyMessages",
      "outputs": [
        {
          "components": [
            {
              "internalType": "address",
              "name": "sender",
              "type": "address"
            },
            {
              "internalType": "string",
              "name": "content",
              "type": "string"
            },
            {
              "internalType": "string",
              "name": "profilePicture",
              "type": "string"
            },
            {
              "internalType": "string",
              "name": "name",
              "type": "string"
            },
            {
              "internalType": "uint256",
              "name": "timestamp",
              "type": "uint256"
            }
          ],
          "internalType": "struct Channel.Message[]",
          "name": "",
          "type": "tuple[]"
        }
      ],
      "stateMutability": "view",
      "type": "function",
      "constant": true
    },
    {
      "inputs": [],
      "name": "itemCount",
      "outputs": [
        {
          "internalType": "uint256",
          "name": "",
          "type": "uint256"
        }
      ],
      "stateMutability": "view",
      "type": "function",
      "constant": true
    },
    {
      "inputs": [
        {
          "internalType": "uint256",
          "name": "",
          "type": "uint256"
        }
      ],
      "name": "items",
      "outputs": [
        {
          "internalType": "uint256",
          "name": "itemId",
          "type": "uint256"
        },
        {
          "internalType": "contract IERC721",
          "name": "nft",
          "type": "address"
        },
        {
          "internalType": "uint256",
          "name": "tokenId",
          "type": "uint256"
        },
        {
          "internalType": "uint256",
          "name": "price",
          "type": "uint256"
        },
        {
          "internalType": "address payable",
          "name": "seller",
          "type": "address"
        },
        {
          "internalType": "address",
          "name": "owner",
          "type": "address"
        },
        {
          "internalType": "bool",
          "name": "sold",
          "type": "bool"
        }
      ],
      "stateMutability": "view",
      "type": "function",
      "constant": true
    },
    {
      "inputs": [
        {
          "internalType": "address",
          "name": "",
          "type": "address"
        }
      ],
      "name": "members",
      "outputs": [
        {
          "internalType": "bool",
          "name": "",
          "type": "bool"
        }
      ],
      "stateMutability": "view",
      "type": "function",
      "constant": true
    },
    {
      "inputs": [
        {
          "internalType": "string",
          "name": "_content",
          "type": "string"
        },
        {
          "internalType": "string",
          "name": "_picture",
          "type": "string"
        },
        {
          "internalType": "string",
          "name": "_name",
          "type": "string"
        }
      ],
      "name": "sendMessage",
      "outputs": [],
      "stateMutability": "nonpayable",
      "type": "function"
    },
    {
      "inputs": [
        {
          "internalType": "contract IERC721",
          "name": "_nft",
          "type": "address"
        },
        {
          "internalType": "uint256",
          "name": "_tokenId",
          "type": "uint256"
        },
        {
          "internalType": "uint256",
          "name": "_price",
          "type": "uint256"
        }
      ],
      "name": "makeItem",
      "outputs": [],
      "stateMutability": "nonpayable",
      "type": "function"
    },
    {
      "inputs": [
        {
          "internalType": "uint256",
          "name": "_itemId",
          "type": "uint256"
        }
      ],
      "name": "purchaseItem",
      "outputs": [],
      "stateMutability": "payable",
      "type": "function",
      "payable": true
    },
    {
      "inputs": [],
      "name": "getMyItems",
      "outputs": [
        {
          "components": [
            {
              "internalType": "uint256",
              "name": "itemId",
              "type": "uint256"
            },
            {
              "internalType": "contract IERC721",
              "name": "nft",
              "type": "address"
            },
            {
              "internalType": "uint256",
              "name": "tokenId",
              "type": "uint256"
            },
            {
              "internalType": "uint256",
              "name": "price",
              "type": "uint256"
            },
            {
              "internalType": "address payable",
              "name": "seller",
              "type": "address"
            },
            {
              "internalType": "address",
              "name": "owner",
              "type": "address"
            },
            {
              "internalType": "bool",
              "name": "sold",
              "type": "bool"
            }
          ],
          "internalType": "struct Marketplace.Item[]",
          "name": "",
          "type": "tuple[]"
        }
      ],
      "stateMutability": "view",
      "type": "function",
      "constant": true
    },
    {
      "inputs": [
        {
          "internalType": "uint256",
          "name": "_tokenId",
          "type": "uint256"
        }
      ],
      "name": "setOwnerItemProfile",
      "outputs": [],
      "stateMutability": "nonpayable",
      "type": "function"
    },
    {
      "inputs": [
        {
          "internalType": "address",
          "name": "_owner",
          "type": "address"
        }
      ],
      "name": "getOwnerItemProfile",
      "outputs": [
        {
          "components": [
            {
              "internalType": "uint256",
              "name": "itemId",
              "type": "uint256"
            },
            {
              "internalType": "contract IERC721",
              "name": "nft",
              "type": "address"
            },
            {
              "internalType": "uint256",
              "name": "tokenId",
              "type": "uint256"
            },
            {
              "internalType": "uint256",
              "name": "price",
              "type": "uint256"
            },
            {
              "internalType": "address payable",
              "name": "seller",
              "type": "address"
            },
            {
              "internalType": "address",
              "name": "owner",
              "type": "address"
            },
            {
              "internalType": "bool",
              "name": "sold",
              "type": "bool"
            }
          ],
          "internalType": "struct Marketplace.Item",
          "name": "",
          "type": "tuple"
        }
      ],
      "stateMutability": "view",
      "type": "function",
      "constant": true
    },
    {
      "inputs": [
        {
          "internalType": "uint256",
          "name": "_itemId",
          "type": "uint256"
        }
      ],
      "name": "getTotalPrice",
      "outputs": [
        {
          "internalType": "uint256",
          "name": "",
          "type": "uint256"
        }
      ],
      "stateMutability": "view",
      "type": "function",
      "constant": true
    }
  ],
  "bytecode": "0x60806040523480156200001157600080fd5b50604051620037f2380380620037f2833981810160405281019062000037919062000288565b81600160008190555033600160006101000a81548173ffffffffffffffffffffffffffffffffffffffff021916908373ffffffffffffffffffffffffffffffffffffffff16021790555080600290805190602001906200009992919062000143565b506001600360003373ffffffffffffffffffffffffffffffffffffffff1673ffffffffffffffffffffffffffffffffffffffff16815260200190815260200160002060006101000a81548160ff0219169083151502179055505033600660006101000a81548173ffffffffffffffffffffffffffffffffffffffff021916908373ffffffffffffffffffffffffffffffffffffffff16021790555080600781905550505062000496565b82805462000151906200038d565b90600052602060002090601f016020900481019282620001755760008555620001c1565b82601f106200019057805160ff1916838001178555620001c1565b82800160010185558215620001c1579182015b82811115620001c0578251825591602001919060010190620001a3565b5b509050620001d09190620001d4565b5090565b5b80821115620001ef576000816000905550600101620001d5565b5090565b60006200020a620002048462000317565b620002ee565b9050828152602081018484840111156200022957620002286200045c565b5b6200023684828562000357565b509392505050565b600082601f83011262000256576200025562000457565b5b815162000268848260208601620001f3565b91505092915050565b60008151905062000282816200047c565b92915050565b60008060408385031215620002a257620002a162000466565b5b600083015167ffffffffffffffff811115620002c357620002c262000461565b5b620002d1858286016200023e565b9250506020620002e48582860162000271565b9150509250929050565b6000620002fa6200030d565b9050620003088282620003c3565b919050565b6000604051905090565b600067ffffffffffffffff82111562000335576200033462000428565b5b62000340826200046b565b9050602081019050919050565b6000819050919050565b60005b83811015620003775780820151818401526020810190506200035a565b8381111562000387576000848401525b50505050565b60006002820490506001821680620003a657607f821691505b60208210811415620003bd57620003bc620003f9565b5b50919050565b620003ce826200046b565b810181811067ffffffffffffffff82111715620003f057620003ef62000428565b5b80604052505050565b7f4e487b7100000000000000000000000000000000000000000000000000000000600052602260045260246000fd5b7f4e487b7100000000000000000000000000000000000000000000000000000000600052604160045260246000fd5b600080fd5b600080fd5b600080fd5b600080fd5b6000601f19601f8301169050919050565b62000487816200034d565b81146200049357600080fd5b50565b61334c80620004a66000396000f3fe6080604052600436106100fe5760003560e01c806385eacc5211610095578063ca7dd37511610064578063ca7dd37514610341578063d0c173c01461037e578063d38ea5bf146103a7578063fa00afc7146103c3578063fd32d89f146103ec576100fe565b806385eacc521461026b578063993ce87614610296578063bfb231d2146102d3578063c5fb207d14610316576100fe565b80635ff6cbf3116100d15780635ff6cbf3146101bf57806365e17c9d146101ea5780636bfb0d01146102155780637fd6f15c14610240576100fe565b806308ae4b0c146101035780630eabeffe146101405780632443877c146101695780635e7339ce14610194575b600080fd5b34801561010f57600080fd5b5061012a6004803603810190610125919061221c565b610429565b604051610137919061292e565b60405180910390f35b34801561014c57600080fd5b506101676004803603810190610162919061229c565b610449565b005b34801561017557600080fd5b5061017e6106df565b60405161018b9190612949565b60405180910390f35b3480156101a057600080fd5b506101a961076d565b6040516101b6919061290c565b60405180910390f35b3480156101cb57600080fd5b506101d4610c2a565b6040516101e1919061290c565b60405180910390f35b3480156101f657600080fd5b506101ff610f2b565b60405161020c9190612898565b60405180910390f35b34801561022157600080fd5b5061022a610f51565b6040516102379190612b40565b60405180910390f35b34801561024c57600080fd5b50610255610f57565b6040516102629190612b40565b60405180910390f35b34801561027757600080fd5b50610280610f5d565b60405161028d919061292e565b60405180910390f35b3480156102a257600080fd5b506102bd60048036038101906102b8919061221c565b610fb1565b6040516102ca9190612b25565b60405180910390f35b3480156102df57600080fd5b506102fa60048036038101906102f59190612343565b6111a1565b60405161030d9796959493929190612b84565b60405180910390f35b34801561032257600080fd5b5061032b611250565b60405161033891906128ea565b60405180910390f35b34801561034d57600080fd5b5061036860048036038101906103639190612343565b611585565b6040516103759190612b40565b60405180910390f35b34801561038a57600080fd5b506103a560048036038101906103a09190612343565b6115ca565b005b6103c160048036038101906103bc9190612343565b61173c565b005b3480156103cf57600080fd5b506103ea60048036038101906103e59190612249565b611c49565b005b3480156103f857600080fd5b50610413600480360381019061040e919061221c565b611f38565b6040516104209190612b40565b60405180910390f35b60036020528060005260406000206000915054906101000a900460ff1681565b600360003373ffffffffffffffffffffffffffffffffffffffff1673ffffffffffffffffffffffffffffffffffffffff16815260200190815260200160002060009054906101000a900460ff166104d5576040517f08c379a00000000000000000000000000000000000000000000000000000000081526004016104cc90612a45565b60405180910390fd5b6000835111610519576040517f08c379a000000000000000000000000000000000000000000000000000000000815260040161051090612ac5565b60405180910390fd5b60006040518060a001604052803373ffffffffffffffffffffffffffffffffffffffff168152602001858152602001848152602001838152602001428152509050600581908060018154018082558091505060019003906000526020600020906005020160009091909190915060008201518160000160006101000a81548173ffffffffffffffffffffffffffffffffffffffff021916908373ffffffffffffffffffffffffffffffffffffffff16021790555060208201518160010190805190602001906105e9929190612004565b506040820151816002019080519060200190610606929190612004565b506060820151816003019080519060200190610623929190612004565b50608082015181600401555050600460003373ffffffffffffffffffffffffffffffffffffffff1673ffffffffffffffffffffffffffffffffffffffff168152602001908152602001600020600081548092919061068090612f69565b91905055503373ffffffffffffffffffffffffffffffffffffffff167f982a58abb58f8dc247af849fb084bb35837a4f7d01ff85ecbd971e57a68f80a4858585426040516106d1949392919061296b565b60405180910390a250505050565b600280546106ec90612f06565b80601f016020809104026020016040519081016040528092919081815260200182805461071890612f06565b80156107655780601f1061073a57610100808354040283529160200191610765565b820191906000526020600020905b81548152906001019060200180831161074857829003601f168201915b505050505081565b6060600360003373ffffffffffffffffffffffffffffffffffffffff1673ffffffffffffffffffffffffffffffffffffffff16815260200190815260200160002060009054906101000a900460ff166107fb576040517f08c379a00000000000000000000000000000000000000000000000000000000081526004016107f290612a45565b60405180910390fd5b6000600460003373ffffffffffffffffffffffffffffffffffffffff1673ffffffffffffffffffffffffffffffffffffffff168152602001908152602001600020541161087d576040517f08c379a000000000000000000000000000000000000000000000000000000000815260040161087490612a65565b60405180910390fd5b6000600460003373ffffffffffffffffffffffffffffffffffffffff1673ffffffffffffffffffffffffffffffffffffffff1681526020019081526020016000205467ffffffffffffffff8111156108d8576108d761306e565b5b60405190808252806020026020018201604052801561091157816020015b6108fe61208a565b8152602001906001900390816108f65790505b5090506000805b600580549050811015610c21573373ffffffffffffffffffffffffffffffffffffffff16600582815481106109505761094f61303f565b5b906000526020600020906005020160000160009054906101000a900473ffffffffffffffffffffffffffffffffffffffff1673ffffffffffffffffffffffffffffffffffffffff161415610c0e57600581815481106109b2576109b161303f565b5b90600052602060002090600502016040518060a00160405290816000820160009054906101000a900473ffffffffffffffffffffffffffffffffffffffff1673ffffffffffffffffffffffffffffffffffffffff1673ffffffffffffffffffffffffffffffffffffffff168152602001600182018054610a3190612f06565b80601f0160208091040260200160405190810160405280929190818152602001828054610a5d90612f06565b8015610aaa5780601f10610a7f57610100808354040283529160200191610aaa565b820191906000526020600020905b815481529060010190602001808311610a8d57829003601f168201915b50505050508152602001600282018054610ac390612f06565b80601f0160208091040260200160405190810160405280929190818152602001828054610aef90612f06565b8015610b3c5780601f10610b1157610100808354040283529160200191610b3c565b820191906000526020600020905b815481529060010190602001808311610b1f57829003601f168201915b50505050508152602001600382018054610b5590612f06565b80601f0160208091040260200160405190810160405280929190818152602001828054610b8190612f06565b8015610bce5780601f10610ba357610100808354040283529160200191610bce565b820191906000526020600020905b815481529060010190602001808311610bb157829003601f168201915b50505050508152602001600482015481525050838381518110610bf457610bf361303f565b5b60200260200101819052508180610c0a90612f69565b9250505b8080610c1990612f69565b915050610918565b50819250505090565b6060600360003373ffffffffffffffffffffffffffffffffffffffff1673ffffffffffffffffffffffffffffffffffffffff16815260200190815260200160002060009054906101000a900460ff16610cb8576040517f08c379a0000000000000000000000000000000000000000000000000000000008152600401610caf90612a45565b60405180910390fd5b6005805480602002602001604051908101604052809291908181526020016000905b82821015610f2257838290600052602060002090600502016040518060a00160405290816000820160009054906101000a900473ffffffffffffffffffffffffffffffffffffffff1673ffffffffffffffffffffffffffffffffffffffff1673ffffffffffffffffffffffffffffffffffffffff168152602001600182018054610d6390612f06565b80601f0160208091040260200160405190810160405280929190818152602001828054610d8f90612f06565b8015610ddc5780601f10610db157610100808354040283529160200191610ddc565b820191906000526020600020905b815481529060010190602001808311610dbf57829003601f168201915b50505050508152602001600282018054610df590612f06565b80601f0160208091040260200160405190810160405280929190818152602001828054610e2190612f06565b8015610e6e5780601f10610e4357610100808354040283529160200191610e6e565b820191906000526020600020905b815481529060010190602001808311610e5157829003601f168201915b50505050508152602001600382018054610e8790612f06565b80601f0160208091040260200160405190810160405280929190818152602001828054610eb390612f06565b8015610f005780601f10610ed557610100808354040283529160200191610f00565b820191906000526020600020905b815481529060010190602001808311610ee357829003601f168201915b5050505050815260200160048201548152505081526020019060010190610cda565b50505050905090565b600660009054906101000a900473ffffffffffffffffffffffffffffffffffffffff1681565b60085481565b60075481565b6000600360003373ffffffffffffffffffffffffffffffffffffffff1673ffffffffffffffffffffffffffffffffffffffff16815260200190815260200160002060009054906101000a900460ff16905090565b610fb96120cf565b6000600b60008473ffffffffffffffffffffffffffffffffffffffff1673ffffffffffffffffffffffffffffffffffffffff16815260200190815260200160002054905060008111611040576040517f08c379a000000000000000000000000000000000000000000000000000000000815260040161103790612b05565b60405180910390fd5b600960008281526020019081526020016000206040518060e0016040529081600082015481526020016001820160009054906101000a900473ffffffffffffffffffffffffffffffffffffffff1673ffffffffffffffffffffffffffffffffffffffff1673ffffffffffffffffffffffffffffffffffffffff16815260200160028201548152602001600382015481526020016004820160009054906101000a900473ffffffffffffffffffffffffffffffffffffffff1673ffffffffffffffffffffffffffffffffffffffff1673ffffffffffffffffffffffffffffffffffffffff1681526020016005820160009054906101000a900473ffffffffffffffffffffffffffffffffffffffff1673ffffffffffffffffffffffffffffffffffffffff1673ffffffffffffffffffffffffffffffffffffffff1681526020016005820160149054906101000a900460ff161515151581525050915050919050565b60096020528060005260406000206000915090508060000154908060010160009054906101000a900473ffffffffffffffffffffffffffffffffffffffff16908060020154908060030154908060040160009054906101000a900473ffffffffffffffffffffffffffffffffffffffff16908060050160009054906101000a900473ffffffffffffffffffffffffffffffffffffffff16908060050160149054906101000a900460ff16905087565b60606000600a60003373ffffffffffffffffffffffffffffffffffffffff1673ffffffffffffffffffffffffffffffffffffffff16815260200190815260200160002054116112d4576040517f08c379a00000000000000000000000000000000000000000000000000000000081526004016112cb90612a25565b60405180910390fd5b6000600a60003373ffffffffffffffffffffffffffffffffffffffff1673ffffffffffffffffffffffffffffffffffffffff1681526020019081526020016000205467ffffffffffffffff81111561132f5761132e61306e565b5b60405190808252806020026020018201604052801561136857816020015b6113556120cf565b81526020019060019003908161134d5790505b5090506000805b60085481101561157c573373ffffffffffffffffffffffffffffffffffffffff166009600083815260200190815260200160002060050160009054906101000a900473ffffffffffffffffffffffffffffffffffffffff1673ffffffffffffffffffffffffffffffffffffffff16141561156957600960008281526020019081526020016000206040518060e0016040529081600082015481526020016001820160009054906101000a900473ffffffffffffffffffffffffffffffffffffffff1673ffffffffffffffffffffffffffffffffffffffff1673ffffffffffffffffffffffffffffffffffffffff16815260200160028201548152602001600382015481526020016004820160009054906101000a900473ffffffffffffffffffffffffffffffffffffffff1673ffffffffffffffffffffffffffffffffffffffff1673ffffffffffffffffffffffffffffffffffffffff1681526020016005820160009054906101000a900473ffffffffffffffffffffffffffffffffffffffff1673ffffffffffffffffffffffffffffffffffffffff1673ffffffffffffffffffffffffffffffffffffffff1681526020016005820160149054906101000a900460ff16151515158152505083838151811061154f5761154e61303f565b5b6020026020010181905250818061156590612f69565b9250505b808061157490612f69565b91505061136f565b50819250505090565b6000606460075460646115989190612d1f565b60096000858152602001908152602001600020600301546115b99190612da6565b6115c39190612d75565b9050919050565b6000811180156115dc57506008548111155b61161b576040517f08c379a000000000000000000000000000000000000000000000000000000000815260040161161290612a85565b60405180910390fd5b3373ffffffffffffffffffffffffffffffffffffffff16600c600083815260200190815260200160002060009054906101000a900473ffffffffffffffffffffffffffffffffffffffff1673ffffffffffffffffffffffffffffffffffffffff16146116bc576040517f08c379a00000000000000000000000000000000000000000000000000000000081526004016116b390612aa5565b60405180910390fd5b80600b60003373ffffffffffffffffffffffffffffffffffffffff1673ffffffffffffffffffffffffffffffffffffffff168152602001908152602001600020819055507fb4cd6eb76c0339dc67cffc9f7756de1320761984ce712cbc8a298ebdef4bb1208133604051611731929190612b5b565b60405180910390a150565b611744611f50565b600061174f82611585565b9050600060096000848152602001908152602001600020905060008311801561177a57506008548311155b6117b9576040517f08c379a00000000000000000000000000000000000000000000000000000000081526004016117b090612a85565b60405180910390fd5b813410156117fc576040517f08c379a00000000000000000000000000000000000000000000000000000000081526004016117f390612a05565b60405180910390fd5b8060050160149054906101000a900460ff161561184e576040517f08c379a0000000000000000000000000000000000000000000000000000000008152600401611845906129c5565b60405180910390fd5b8060040160009054906101000a900473ffffffffffffffffffffffffffffffffffffffff1673ffffffffffffffffffffffffffffffffffffffff166108fc82600301549081150290604051600060405180830381858888f193505050501580156118bc573d6000803e3d6000fd5b50600660009054906101000a900473ffffffffffffffffffffffffffffffffffffffff1673ffffffffffffffffffffffffffffffffffffffff166108fc8260030154846119099190612e00565b9081150290604051600060405180830381858888f19350505050158015611934573d6000803e3d6000fd5b5060018160050160146101000a81548160ff0219169083151502179055508060010160009054906101000a900473ffffffffffffffffffffffffffffffffffffffff1673ffffffffffffffffffffffffffffffffffffffff166323b872dd303384600201546040518463ffffffff1660e01b81526004016119b7939291906128b3565b600060405180830381600087803b1580156119d157600080fd5b505af11580156119e5573d6000803e3d6000fd5b50505050338160050160006101000a81548173ffffffffffffffffffffffffffffffffffffffff021916908373ffffffffffffffffffffffffffffffffffffffff160217905550611a34611fa0565b33600c600085815260200190815260200160002060006101000a81548173ffffffffffffffffffffffffffffffffffffffff021916908373ffffffffffffffffffffffffffffffffffffffff160217905550600a60003373ffffffffffffffffffffffffffffffffffffffff1673ffffffffffffffffffffffffffffffffffffffff1681526020019081526020016000206000815480929190611ad690612f69565b91905055506001600a60003373ffffffffffffffffffffffffffffffffffffffff1673ffffffffffffffffffffffffffffffffffffffff168152602001908152602001600020541415611b6c578060020154600b60003373ffffffffffffffffffffffffffffffffffffffff1673ffffffffffffffffffffffffffffffffffffffff168152602001908152602001600020819055505b3373ffffffffffffffffffffffffffffffffffffffff168160040160009054906101000a900473ffffffffffffffffffffffffffffffffffffffff1673ffffffffffffffffffffffffffffffffffffffff168260010160009054906101000a900473ffffffffffffffffffffffffffffffffffffffff1673ffffffffffffffffffffffffffffffffffffffff167f8b4c9c8a607d67b321582dd8461041b1dc2ceeca70c8b7f37f8e02095cf2e76d8685600201548660030154604051611c3493929190612bf3565b60405180910390a45050611c46611ffa565b50565b611c51611f50565b60008111611c94576040517f08c379a0000000000000000000000000000000000000000000000000000000008152600401611c8b906129e5565b60405180910390fd5b60086000815480929190611ca790612f69565b91905055508273ffffffffffffffffffffffffffffffffffffffff166323b872dd3330856040518463ffffffff1660e01b8152600401611ce9939291906128b3565b600060405180830381600087803b158015611d0357600080fd5b505af1158015611d17573d6000803e3d6000fd5b505050506040518060e0016040528060085481526020018473ffffffffffffffffffffffffffffffffffffffff1681526020018381526020018281526020013373ffffffffffffffffffffffffffffffffffffffff1681526020013373ffffffffffffffffffffffffffffffffffffffff168152602001600015158152506009600060085481526020019081526020016000206000820151816000015560208201518160010160006101000a81548173ffffffffffffffffffffffffffffffffffffffff021916908373ffffffffffffffffffffffffffffffffffffffff160217905550604082015181600201556060820151816003015560808201518160040160006101000a81548173ffffffffffffffffffffffffffffffffffffffff021916908373ffffffffffffffffffffffffffffffffffffffff16021790555060a08201518160050160006101000a81548173ffffffffffffffffffffffffffffffffffffffff021916908373ffffffffffffffffffffffffffffffffffffffff16021790555060c08201518160050160146101000a81548160ff0219169083151502179055509050503373ffffffffffffffffffffffffffffffffffffffff168373ffffffffffffffffffffffffffffffffffffffff167f655a0cf9c8db81512be9a76dc1c5ae5380b8816ce6ad659cd61b715e2999d59a6008548585604051611f2393929190612bf3565b60405180910390a3611f33611ffa565b505050565b60046020528060005260406000206000915090505481565b60026000541415611f96576040517f08c379a0000000000000000000000000000000000000000000000000000000008152600401611f8d90612ae5565b60405180910390fd5b6002600081905550565b6001600360003373ffffffffffffffffffffffffffffffffffffffff1673ffffffffffffffffffffffffffffffffffffffff16815260200190815260200160002060006101000a81548160ff021916908315150217905550565b6001600081905550565b82805461201090612f06565b90600052602060002090601f0160209004810192826120325760008555612079565b82601f1061204b57805160ff1916838001178555612079565b82800160010185558215612079579182015b8281111561207857825182559160200191906001019061205d565b5b5090506120869190612150565b5090565b6040518060a00160405280600073ffffffffffffffffffffffffffffffffffffffff168152602001606081526020016060815260200160608152602001600081525090565b6040518060e0016040528060008152602001600073ffffffffffffffffffffffffffffffffffffffff1681526020016000815260200160008152602001600073ffffffffffffffffffffffffffffffffffffffff168152602001600073ffffffffffffffffffffffffffffffffffffffff1681526020016000151581525090565b5b80821115612169576000816000905550600101612151565b5090565b600061218061217b84612c4f565b612c2a565b90508281526020810184848401111561219c5761219b6130a2565b5b6121a7848285612ec4565b509392505050565b6000813590506121be816132d1565b92915050565b6000813590506121d3816132e8565b92915050565b600082601f8301126121ee576121ed61309d565b5b81356121fe84826020860161216d565b91505092915050565b600081359050612216816132ff565b92915050565b600060208284031215612232576122316130ac565b5b6000612240848285016121af565b91505092915050565b600080600060608486031215612262576122616130ac565b5b6000612270868287016121c4565b935050602061228186828701612207565b925050604061229286828701612207565b9150509250925092565b6000806000606084860312156122b5576122b46130ac565b5b600084013567ffffffffffffffff8111156122d3576122d26130a7565b5b6122df868287016121d9565b935050602084013567ffffffffffffffff811115612300576122ff6130a7565b5b61230c868287016121d9565b925050604084013567ffffffffffffffff81111561232d5761232c6130a7565b5b612339868287016121d9565b9150509250925092565b600060208284031215612359576123586130ac565b5b600061236784828501612207565b91505092915050565b600061237c83836126da565b60e08301905092915050565b600061239483836127f6565b905092915050565b6123a581612e46565b82525050565b6123b481612e46565b82525050565b6123c381612e34565b82525050565b6123d281612e34565b82525050565b60006123e382612ca0565b6123ed8185612cdb565b93506123f883612c80565b8060005b838110156124295781516124108882612370565b975061241b83612cc1565b9250506001810190506123fc565b5085935050505092915050565b600061244182612cab565b61244b8185612cec565b93508360208202850161245d85612c90565b8060005b85811015612499578484038952815161247a8582612388565b945061248583612cce565b925060208a01995050600181019050612461565b50829750879550505050505092915050565b6124b481612e58565b82525050565b6124c381612e58565b82525050565b6124d281612ea0565b82525050565b6124e181612ea0565b82525050565b60006124f282612cb6565b6124fc8185612cfd565b935061250c818560208601612ed3565b612515816130b1565b840191505092915050565b600061252b82612cb6565b6125358185612d0e565b9350612545818560208601612ed3565b61254e816130b1565b840191505092915050565b6000612566601183612d0e565b9150612571826130c2565b602082019050919050565b6000612589601f83612d0e565b9150612594826130eb565b602082019050919050565b60006125ac603383612d0e565b91506125b782613114565b604082019050919050565b60006125cf601183612d0e565b91506125da82613163565b602082019050919050565b60006125f2602483612d0e565b91506125fd8261318c565b604082019050919050565b6000612615601d83612d0e565b9150612620826131db565b602082019050919050565b6000612638601283612d0e565b915061264382613204565b602082019050919050565b600061265b601283612d0e565b91506126668261322d565b602082019050919050565b600061267e601f83612d0e565b915061268982613256565b602082019050919050565b60006126a1601f83612d0e565b91506126ac8261327f565b602082019050919050565b60006126c4601c83612d0e565b91506126cf826132a8565b602082019050919050565b60e0820160008201516126f0600085018261287a565b50602082015161270360208501826124c9565b506040820151612716604085018261287a565b506060820151612729606085018261287a565b50608082015161273c608085018261239c565b5060a082015161274f60a08501826123ba565b5060c082015161276260c08501826124ab565b50505050565b60e08201600082015161277e600085018261287a565b50602082015161279160208501826124c9565b5060408201516127a4604085018261287a565b5060608201516127b7606085018261287a565b5060808201516127ca608085018261239c565b5060a08201516127dd60a08501826123ba565b5060c08201516127f060c08501826124ab565b50505050565b600060a08301600083015161280e60008601826123ba565b506020830151848203602086015261282682826124e7565b9150506040830151848203604086015261284082826124e7565b9150506060830151848203606086015261285a82826124e7565b915050608083015161286f608086018261287a565b508091505092915050565b61288381612e96565b82525050565b61289281612e96565b82525050565b60006020820190506128ad60008301846123ab565b92915050565b60006060820190506128c860008301866123c9565b6128d560208301856123c9565b6128e26040830184612889565b949350505050565b6000602082019050818103600083015261290481846123d8565b905092915050565b600060208201905081810360008301526129268184612436565b905092915050565b600060208201905061294360008301846124ba565b92915050565b600060208201905081810360008301526129638184612520565b905092915050565b600060808201905081810360008301526129858187612520565b905081810360208301526129998186612520565b905081810360408301526129ad8185612520565b90506129bc6060830184612889565b95945050505050565b600060208201905081810360008301526129de81612559565b9050919050565b600060208201905081810360008301526129fe8161257c565b9050919050565b60006020820190508181036000830152612a1e8161259f565b9050919050565b60006020820190508181036000830152612a3e816125c2565b9050919050565b60006020820190508181036000830152612a5e816125e5565b9050919050565b60006020820190508181036000830152612a7e81612608565b9050919050565b60006020820190508181036000830152612a9e8161262b565b9050919050565b60006020820190508181036000830152612abe8161264e565b9050919050565b60006020820190508181036000830152612ade81612671565b9050919050565b60006020820190508181036000830152612afe81612694565b9050919050565b60006020820190508181036000830152612b1e816126b7565b9050919050565b600060e082019050612b3a6000830184612768565b92915050565b6000602082019050612b556000830184612889565b92915050565b6000604082019050612b706000830185612889565b612b7d60208301846123c9565b9392505050565b600060e082019050612b99600083018a612889565b612ba660208301896124d8565b612bb36040830188612889565b612bc06060830187612889565b612bcd60808301866123ab565b612bda60a08301856123c9565b612be760c08301846124ba565b98975050505050505050565b6000606082019050612c086000830186612889565b612c156020830185612889565b612c226040830184612889565b949350505050565b6000612c34612c45565b9050612c408282612f38565b919050565b6000604051905090565b600067ffffffffffffffff821115612c6a57612c6961306e565b5b612c73826130b1565b9050602081019050919050565b6000819050602082019050919050565b6000819050602082019050919050565b600081519050919050565b600081519050919050565b600081519050919050565b6000602082019050919050565b6000602082019050919050565b600082825260208201905092915050565b600082825260208201905092915050565b600082825260208201905092915050565b600082825260208201905092915050565b6000612d2a82612e96565b9150612d3583612e96565b9250827fffffffffffffffffffffffffffffffffffffffffffffffffffffffffffffffff03821115612d6a57612d69612fb2565b5b828201905092915050565b6000612d8082612e96565b9150612d8b83612e96565b925082612d9b57612d9a612fe1565b5b828204905092915050565b6000612db182612e96565b9150612dbc83612e96565b9250817fffffffffffffffffffffffffffffffffffffffffffffffffffffffffffffffff0483118215151615612df557612df4612fb2565b5b828202905092915050565b6000612e0b82612e96565b9150612e1683612e96565b925082821015612e2957612e28612fb2565b5b828203905092915050565b6000612e3f82612e76565b9050919050565b6000612e5182612e76565b9050919050565b60008115159050919050565b6000612e6f82612e34565b9050919050565b600073ffffffffffffffffffffffffffffffffffffffff82169050919050565b6000819050919050565b6000612eab82612eb2565b9050919050565b6000612ebd82612e76565b9050919050565b82818337600083830152505050565b60005b83811015612ef1578082015181840152602081019050612ed6565b83811115612f00576000848401525b50505050565b60006002820490506001821680612f1e57607f821691505b60208210811415612f3257612f31613010565b5b50919050565b612f41826130b1565b810181811067ffffffffffffffff82111715612f6057612f5f61306e565b5b80604052505050565b6000612f7482612e96565b91507fffffffffffffffffffffffffffffffffffffffffffffffffffffffffffffffff821415612fa757612fa6612fb2565b5b600182019050919050565b7f4e487b7100000000000000000000000000000000000000000000000000000000600052601160045260246000fd5b7f4e487b7100000000000000000000000000000000000000000000000000000000600052601260045260246000fd5b7f4e487b7100000000000000000000000000000000000000000000000000000000600052602260045260246000fd5b7f4e487b7100000000000000000000000000000000000000000000000000000000600052603260045260246000fd5b7f4e487b7100000000000000000000000000000000000000000000000000000000600052604160045260246000fd5b600080fd5b600080fd5b600080fd5b600080fd5b6000601f19601f8301169050919050565b7f6974656d20616c726561647920736f6c64000000000000000000000000000000600082015250565b7f5072696365206d7573742062652067726561746572207468616e207a65726f00600082015250565b7f6e6f7420656e6f75676820657468657220746f20636f766572206974656d207060008201527f7269636520616e64206d61726b65742066656500000000000000000000000000602082015250565b7f596f752068617665206e6f206974656d73000000000000000000000000000000600082015250565b7f596f7520617265206e6f742061206d656d626572206f6620746869732063686160008201527f6e6e656c00000000000000000000000000000000000000000000000000000000602082015250565b7f596f752068617665206e657665722073656e642061206d657373616765000000600082015250565b7f6974656d20646f65736e27742065786973740000000000000000000000000000600082015250565b7f49742073206e6f7420796f7572206974656d0000000000000000000000000000600082015250565b7f4d65737361676520636f6e74656e742063616e6e6f7420626520656d70747900600082015250565b7f5265656e7472616e637947756172643a207265656e7472616e742063616c6c00600082015250565b7f4e6f2070726f66696c652073657420666f722074686973207573657200000000600082015250565b6132da81612e34565b81146132e557600080fd5b50565b6132f181612e64565b81146132fc57600080fd5b50565b61330881612e96565b811461331357600080fd5b5056fea26469706673582212202ba0821ff2448a8543e9109546883b15ec92c4eda4bb80614929eb5eaeaf816d64736f6c63430008060033",
  "immutableReferences": {},
  "source": "// SPDX-License-Identifier: MIT\npragma solidity ^0.8.6;\n\nimport \"@openzeppelin/contracts/token/ERC721/IERC721.sol\";\nimport \"@openzeppelin/contracts/security/ReentrancyGuard.sol\";\nimport \"./Channel.sol\";\n\ncontract Marketplace is ReentrancyGuard, Channel {\n\n    // Variables\n    address payable public feeAccount;\n    uint public feePercent; // the fee percentage on sales\n    uint public itemCount;\n\n    struct Item {\n        uint itemId;\n        IERC721 nft;\n        uint tokenId;\n        uint price;\n        address payable seller;\n        address owner;\n        bool sold;\n    }\n\n    // itemId -> Item\n    mapping(uint => Item) public items;\n    mapping (address => uint) private ownerItemsCount;\n    mapping (address => uint) private ownerItemProfile;\n    mapping (uint => address) private itemToOwner;\n\n    event Offered(\n        uint itemId,\n        address indexed nft,\n        uint tokenId,\n        uint price,\n        address indexed seller\n    );\n    event Bought(\n        uint itemId,\n        address indexed nft,\n        uint tokenId,\n        uint price,\n        address indexed seller,\n        address indexed buyer\n    );\n    event changeProfile(\n        uint tokenId,\n        address user\n    );\n\n    constructor(string memory _channelName, uint _feePercent)\n        Channel(_channelName)\n    {\n        feeAccount = payable(msg.sender);\n        feePercent = _feePercent;\n    }\n\n    // Make item to offer on the marketplaceState\n    function makeItem(IERC721 _nft, uint _tokenId, uint _price) external nonReentrant {\n        require(_price > 0, \"Price must be greater than zero\");\n        // increment itemCount\n        itemCount ++;\n        // transfer nftState\n        _nft.transferFrom(msg.sender, address(this), _tokenId);\n        // add new item to items mapping\n        items[itemCount] = Item (\n            itemCount,\n            _nft,\n            _tokenId,\n            _price,\n            payable(msg.sender),\n            msg.sender,\n            false\n        );\n        // emit Offered event\n        emit Offered(\n            itemCount,\n            address(_nft),\n            _tokenId,\n            _price,\n            msg.sender\n        );\n    }\n\n    function purchaseItem(uint _itemId) public payable nonReentrant {\n        uint _totalPrice = getTotalPrice(_itemId);\n        Item storage item = items[_itemId];\n        require(_itemId > 0 && _itemId <= itemCount, \"item doesn't exist\");\n        require(msg.value >= _totalPrice, \"not enough ether to cover item price and market fee\");\n        require(!item.sold, \"item already sold\");\n        // pay seller and feeAccount\n        item.seller.transfer(item.price);\n        feeAccount.transfer(_totalPrice - item.price);\n        // update item to sold\n        item.sold = true;\n        // transfer nftState to buyer\n        item.nft.transferFrom(address(this), msg.sender, item.tokenId);\n        item.owner = msg.sender;\n        _joinChannel();\n\n        itemToOwner[_itemId] = msg.sender;\n        ownerItemsCount[msg.sender]++;\n        if (ownerItemsCount[msg.sender] == 1) {\n            ownerItemProfile[msg.sender] = item.tokenId;\n        }\n        // emit Bought event\n        emit Bought(\n            _itemId,\n            address(item.nft),\n            item.tokenId,\n            item.price,\n            item.seller,\n            msg.sender\n        );\n    }\n\n\n    function getMyItems() external view returns(Item[] memory) {\n        require(ownerItemsCount[msg.sender] > 0, \"You have no items\");\n\n        Item[] memory result = new Item[](ownerItemsCount[msg.sender]);\n        uint counter = 0;\n\n        for (uint i = 0; i < itemCount; i++) {\n            if (items[i].owner == msg.sender) {\n                result[counter] = items[i];\n                counter++;\n            }\n        }\n        return result;\n    }\n\n    function setOwnerItemProfile(uint _tokenId) external {\n        require(_tokenId > 0 && _tokenId <= itemCount, \"item doesn't exist\");\n        require(itemToOwner[_tokenId] == msg.sender, \"It s not your item\");\n\n        ownerItemProfile[msg.sender] = _tokenId;\n\n        emit changeProfile(\n            _tokenId,\n            msg.sender\n        );\n    }\n\n    function getOwnerItemProfile(address _owner) external view returns(Item memory) {\n        uint profileTokenId = ownerItemProfile[_owner];\n        require(profileTokenId > 0, \"No profile set for this user\");\n        return items[profileTokenId];\n    }\n\n    function getTotalPrice(uint _itemId) view public returns(uint){\n        return((items[_itemId].price*(100 + feePercent))/100);\n    }\n}\n",
  "sourcePath": "/Users/matthias/Programming/Perso/sites/clone/paranom/client-web3/contracts/Marketplace.sol",
  "compiler": {
    "name": "solc",
    "version": "0.8.6+commit.11564f7e.Emscripten.clang"
  },
  "schemaVersion": "3.4.16",
  "updatedAt": "2024-01-21T15:13:27.274Z",
  "networkType": "ethereum",
  "devdoc": {
    "kind": "dev",
    "methods": {},
    "version": 1
  },
  "userdoc": {
    "kind": "user",
    "methods": {},
    "version": 1
  }
}